:100000000C9446000C9465000C9465000C946500FB
:100010000C9465000C9465000C9465000C946500CC
:100020000C9465000C9465000C9465000C945F05BD
:100030000C9465000C9465000C9497050C94650075
:100040000C9465000C9465000C9465000C9465009C
:100050000C9465000C9465000C9465000C9465008C
:100060000C9465000C9465000C9465000C9465007C
:100070000C9465000C9465000C9465000C9465006C
:100080000C9465000C9465000C94650011241FBE4F
:10009000CFEFD0E1DEBFCDBF12E0A0E0B1E0ECE8F1
:1000A000FFE100E00BBF02C007900D92A03CB1073A
:1000B000D9F712E0A0ECB2E001C01D92A03EB1075A
:1000C000E1F70E94B4010C94C40F0C94000084B3B7
:1000D0008F7084BBA99AA89800C000C0AA9A00C0DB
:1000E00000C083B3807F00C000C0AA9892E09A95B8
:1000F000F1F700C0AA9A00C000C093B300C000C0CE
:10010000AA9892E09A95F1F700C087FDE7CFA998E9
:1001100084B3806F84BB0895982F92959F708F70E1
:10012000662311F4A89801C0A89A00C000C0AA9A3A
:1001300025B39295907F2F70922B95BB92E09A9564
:10014000F1F700C0AA9892E09A95F1F700C0AA9A38
:1001500095B38295807F9F70892B85BB82E08A95BD
:10016000F1F700C0AA9892E09A95F1F700C00E94BA
:1001700067000895CF93DF93EC0110C0853251F4EE
:10018000219688818053883028F085E261E00E94C2
:100190008C00888161E00E948C00219688818823F0
:1001A00069F7DF91CF910895EF92FF920F931F931C
:1001B000DF93CF9300D000D00F92CDB7DEB79B0175
:1001C000FE01319645E0DF011D924A95E9F7FE01F7
:1001D00036960AE010E005C0B8010E940B0C82932D
:1001E000CB010097C9F7BFEF2F3F3B0751F4FE014A
:1001F000319680E090E001C0019621912223E1F345
:1002000004C085E090E0821B930B8E010F5F1F4FAF
:10021000080F191F7C010AC0F80181918F01805DD0
:1002200061E00E948C000894E11CF11CF5E0EF16DF
:10023000F10494F30F900F900F900F900F90CF91C7
:10024000DF911F910F91FF90EF900895843178F422
:10025000623031F0633031F0613029F4806403C0E2
:100260008C5E01C08C5A806860E00E948C0008950A
:100270000F931F93DF93CF930F92CDB7DEB7EFE5C8
:10028000FAEE3197F1F700C0000094B3906F94BB81
:10029000A29AA09AA19A95B39F7095BBAA98A99883
:1002A000A89800C00000AA9AAD9AF2E0FA95F1F77A
:1002B00000C0AA9892E09A95F1F700C089830E9445
:1002C000670089818C6060E00E948C0088E260E0B9
:1002D0000E948C0080E460E00E948C0000E011E04D
:1002E000F80181918F0161E00E948C00F1E00034FF
:1002F0001F07B1F780E060E00E9426010F90CF91C8
:10030000DF911F910F9108958FE18BBB80E48ABB31
:1003100018BA17BA15BA87EF84BB80EC82BB88E0A5
:1003200081BB13B880E382B9109262001092610021
:1003300010926500109264000895DE9A0895DE9B85
:1003400004C08BB390E489278BBB0895A8952FE058
:1003500088E190E00FB6F894A89581BD0FBE21BD4D
:1003600088E181BDA89508952F923F924F925F92A8
:100370006F927F928F929F92AF92BF92CF92DF92B5
:10038000EF92FF920F931F93CF93DF930E9484010C
:10039000139AD69A80E00E943801A39AAB9A80E023
:1003A00090E00E94F40EEB017093CB026093CA02BE
:1003B00085E090E00E94F40E9B017093CD02609363
:1003C000CC022C0F3D1FC90162E070E00E940B0CB3
:1003D0007093CF026093CE02F89487B7846287BF90
:1003E0008EB581648EBD80E880938B0081E180931F
:1003F0008A0088EE93E090938100809380001092B1
:10040000870010928600789481E060E00E948C0062
:100410000E949D010E94A6016091D0027091D102BC
:100420008091D2029091D3020E94CF0970938700ED
:10043000609386008FEF90E7A2E081509040A0404B
:10044000E1F700C000005CEDC52E52E0D52E44E07F
:10045000A42EB12C30E4832E31E0932E2AEF622EAD
:10046000712C98EE492E93E0592E82E0282E312CE3
:100470006091C4027091C5027093C3026093C2027E
:100480008091C6029091C702009709F0B4C1A89567
:10049000882777FD8095982F0E946F097B018C013A
:1004A0006091CE027091CF02882777FD8095982FBA
:1004B0000E946F099B01AC01C801B7010E9461084D
:1004C00020E030E040E950E40E946707162FE72E55
:1004D000082FF92E862F9E2DA02FBF2D8093D4029A
:1004E0009093D502A093D602B093D7026091D80220
:1004F0007091D9028091DA029091DB0220E030E025
:1005000040E850E40E9467079B01AC01612F7E2DFB
:10051000802F9F2D0E94090720E030E040EA50E440
:100520000E9461087B018C01862F9F2DA02FB12F87
:100530008093D8029093D902A093DA02B093DB02A1
:100540006E2D7F2D802F912F0E94CF09ADB7BEB7A2
:100550001A970FB6F894BEBF0FBEADBFCDB7DEB7CA
:100560002196EDB7FEB7D282C182BB82AA829D825C
:100570008C827F836E83882777FD8095982F0E94D9
:100580006F099B01AC016E2D7F2D802F912F0E9452
:10059000360720E030E040E251E40E9467070E9405
:1005A000CF09798768870E94A60C2DB73EB7265FD2
:1005B0003F4F0FB6F8943EBF0FBE2DBF81E060E005
:1005C0000E948C008AE491E00E94BA00C6010E9459
:1005D000BA0084E591E00E94BA0080E061E00E94E8
:1005E000260189E591E00E94BA00A8958FEF90E777
:1005F000A2E081509040A040E1F700C00000A89523
:100600000091C2021091C302C091CE02D091CF02DC
:10061000CE010A9708171907E4F4CE01875C9040D1
:1006200008171907B4F06091D0027091D10280913F
:10063000D2029091D30220E030E040E85EE30E94D5
:1006400009076093D0027093D1028093D2029093F5
:10065000D302CE010A9680179107E4F4CE018953A4
:100660009F4F80179107B4F06091D0027091D10232
:100670008091D2029091D30220E030E040E85EE326
:100680000E9436076093D0027093D1028093D20209
:100690009093D302CE01885C904008171907B4F4F8
:1006A0006091D0027091D1028091D2029091D302D8
:1006B00020E030E040E850E40E9409076093D00257
:1006C0007093D1028093D2029093D302CE018853CB
:1006D0009F4F80179107B4F46091D0027091D102BE
:1006E0008091D2029091D30220E030E040E850E4C3
:1006F0000E9436076093D0027093D1028093D20299
:100700009093D302CE01CC97081719074CF480912F
:10071000C0029091C10244969093C1028093C0029E
:10072000CE01CC96801791074CF48091C002909135
:10073000C10244969093C1028093C002CE01879675
:100740008017910744F0A7970C171D0724F010920B
:10075000C1021092C0028091C0029091C1028B3FF1
:10076000910524F07092C1026092C0026091D002A3
:100770007091D1028091D2029091D30220E030ECAE
:1007800049E754E40E940F09181664F480E090ECE5
:10079000A9E7B4E48093D0029093D102A093D2024F
:1007A000B093D3026091D0027091D1028091D202B5
:1007B0009091D30220E030E0A9010E943F0987FF19
:1007C0000BC080E090E0DC018093D0029093D102D6
:1007D000A093D202B093D3026091D0027091D10263
:1007E0008091D2029091D3020E94CF09709387002A
:1007F00060938600A8958091C6029091C7028130CF
:10080000910509F05AC081E060E00E948C0089E601
:1008100091E00E94BA008091C8029091C9020097AD
:1008200041F480E061E00E9426018AE791E00E94A5
:10083000BA008091C8029091C9028130910541F4BB
:1008400080E061E00E94260187E891E00E94BA0002
:100850008091C8029091C9028230910519F580E01B
:1008600061E00E94260184E991E00E94BA008FE7CE
:1008700098E3A1E081509040A040E1F700C0000063
:1008800080E061E00E94260185EA91E00E94BA00C2
:100890008FE798E3A1E081509040A040E1F700C0CD
:1008A0000000A895A8958FE799EAA3E081509040B1
:1008B000A040E1F700C00000A895CB991EC0809130
:1008C000C6029091C70201969093C7028093C60218
:1008D00001C0A895CB9BFDCFAFE4B3EC1197F1F726
:1008E00000C000008091C6029091C702823091053D
:1008F00024F01092C7021092C602C89927C08091B6
:10090000C6029091C70281309105D1F48091B60161
:100910009091B70105969093B7018093B601B3E02B
:10092000893E9B0724F05092B7014092B601809116
:10093000B6019091B7019093870080938600A895A7
:10094000EFE4F3EC3197F1F700C00000CC9925C03B
:100950008091C6029091C70281309105C1F48091C7
:10096000B6019091B70105979093B7018093B601B6
:1009700097FF04C01092B7011092B6018091B601A2
:100980009091B7019093870080938600A8958FE49B
:1009900093EC0197F1F700C00000CA995CC0A895DC
:1009A0002091C6023091C7022130310509F04BC0B9
:1009B0008091C8029091C9028130910599F08230EE
:1009C0009105E9F0009709F03EC08091C202909134
:1009D000C3029093CB028093CA023093C902209342
:1009E000C80231C08091C2029091C3029093CD029F
:1009F0008093CC023092C9022092C80224C0A895EC
:100A00004091CA025091CB02662757FD6095762F20
:100A100080E090E00E94FA0E4091CC025091CD020D
:100A2000662757FD6095762F85E090E00E94FA0ECC
:100A3000A8951092C7021092C6021092C902109295
:100A4000C80201C0A895CA9BFDCFAFE4B3EC1197D3
:100A5000F1F700C00000C9991FC08091C6029091B3
:100A6000C70201979093C7028093C60201C0A89560
:100A7000CB9BFDCFEFE4F3EC3197F1F700C0000022
:100A80008091C6029091C70297FF06C021E030E036
:100A90003093C7022093C6028091C0029091C10298
:100AA000009711F40E949F018091C0029091C102B1
:100AB0008A3F91050CF4DCCC0E949D01D9CC1F9299
:100AC0000F920FB60F920BB60F9211242F933F93F4
:100AD0004F935F936F937F938F939F93AF93BF9346
:100AE000EF93FF9326B537B540E050E060E271EA3E
:100AF00087E090E00E941E0C3093C5022093C40250
:100B000017BC16BC1DBC1CBCFF91EF91BF91AF91EF
:100B10009F918F917F916F915F914F913F912F9115
:100B20000F900BBE0F900FBE0F901F9018951F9245
:100B30000F920FB60F9211248F939F931DBC1CBC74
:100B400017BC16BC8091C0029091C102019690938F
:100B5000C1028093C0028B3F910534F08AEF90E090
:100B60009093C1028093C0021092C3021092C202FD
:100B70009F918F910F900FBE0F901F901895A0E03E
:100B8000B0E0E5ECF5E00C94730CFC01EA01808127
:100B9000823008F438C1DB019C91923008F430C1F6
:100BA000843059F4943009F02EC1918111968C91C2
:100BB0001197981709F021C126C1943009F420C17A
:100BC0009230B1F4823009F01EC1CA01AF0128E0B1
:100BD000DA010D90AD01DC010D92CD012150C1F77C
:100BE000DB0111968C9111979181892389830AC128
:100BF000823009F405C1C280D380DB0112966D906A
:100C00007C90139724813581468157811496ED900D
:100C1000FD900D911C911797C601861997095C01EB
:100C200097FF04C0AA24BB24A81AB90AB0E2AB16E5
:100C3000B1040CF061C0181619066CF537014801B3
:100C40000A2C04C096948794779467940A94D2F7F8
:100C500081E090E0A0E0B0E00A2C04C0880F991F6A
:100C6000AA1FBB1F0A94D2F70197A109B1098E21CF
:100C70009F21A023B123EE24FF248701E394009752
:100C8000A105B10519F4EE24FF248701E628F72811
:100C9000082919293CC00097D1F1CA0CDB1C390185
:100CA0004A010A2C04C096948794779467940A9416
:100CB000D2F781E090E0A0E0B0E00A2C04C0880FF9
:100CC000991FAA1FBB1F0A94D2F70197A109B10966
:100CD00082239323A423B52321E030E040E050E0B9
:100CE0000097A105B10519F420E030E0A9012629FB
:100CF0003729482959290BC06C147D0424F4EE24AB
:100D0000FF24870104C0630120E030E0A901818154
:100D1000FB019181891709F445C0882349F0D80166
:100D2000C701821B930BA40BB50B9C01AD0104C042
:100D30002E193F09400B510B57FD04C01982DB826D
:100D4000CA820BC081E08983DB82CA8250954095BC
:100D5000309521953F4F4F4F5F4F2C833D834E83FE
:100D60005F830DC0880F991FAA1FBB1F8C839D83B3
:100D7000AE83BF838A819B8101979B838A838C8109
:100D80009D81AE81BF819C01AD012150304040402A
:100D900050402F3FEFEF3E07EFEF4E07EFE35E07C8
:100DA00008F30BC08983DB82CA822E0D3F1D401FD2
:100DB000511F2C833D834E835F8383E088832C8186
:100DC0003D814E815F8157FF1DC0DA01C9018170ED
:100DD0009070A070B0705695479537952795822BE7
:100DE000932BA42BB52B8C839D83AE83BF838A81E9
:100DF0009B8101969B838A8305C0E8EBF1E003C0E9
:100E0000FB0101C0FE01CF01CDB7DEB7EEE00C94CF
:100E10008F0CA0E2B0E0EFE0F7E00C947B0C69836C
:100E20007A838B839C832D833E834F83588789E00D
:100E3000E82EF12CEC0EFD1ECE010196B7010E94AA
:100E4000490B8E010F5E1F4FCE010596B8010E941F
:100E5000490BC701B801AE01475E5F4F0E94BF0555
:100E60000E947B0AA096E6E00C94970CA0E2B0E00A
:100E7000ECE3F7E00C947B0C69837A838B839C838F
:100E80002D833E834F8358878E01075F1F4FCE010E
:100E90000196B8010E94490B91E1E92EF12CEC0E6C
:100EA000FD1ECE010596B7010E94490B8A8991E08B
:100EB00089278A8BC801B701AE01475E5F4F0E9448
:100EC000BF050E947B0AA096E6E00C94970CA0E276
:100ED000B0E0EDE6F7E00C946F0C69837A838B83C6
:100EE0009C832D833E834F835887CE010196BE019C
:100EF000675F7F4F0E94490BCE010596BE016F5E72
:100F00007F4F0E94490B9985923078F08989823011
:100F1000C0F0943019F4823041F4CBC0843019F41D
:100F2000923079F4C6C0923051F481E02A859A89D2
:100F3000291709F480E08A87CE010996BCC0823067
:100F400051F481E02A859A89291709F480E08A8B77
:100F5000CE014196B0C06D847E848F849888ED88E0
:100F6000FE880F89188DE0E2F0E080E090E0DC017F
:100F7000AA24BB24650120E030E0A901B30161701F
:100F8000707061157105D1F02E0D3F1D401F511F6E
:100F900015012601280E391E4A1E5B1E81E090E0D5
:100FA000A0E0B0E02E153F054007510718F080E0A3
:100FB00090E0DC01820D931DA41DB51DAA0CBB1C85
:100FC000CC1CDD1C17FF09C061E0262E312C412C02
:100FD000512CA228B328C428D528319749F0EE0C0B
:100FE000FF1C001F111F9694879477946794C6CFB7
:100FF0006B897C89EB85FC856E0F7F1F6E5F7F4F51
:101000007C8F6B8F61E0EA857A89E71709F460E0ED
:101010006A8F6B8D7C8D10C0FC01E170F070309791
:1010200029F056954795379527955068B695A79519
:10103000979587956F5F7F4FB7FDEECF0CC0880FF8
:10104000991FAA1FBB1F57FD8160220F331F441F2A
:10105000551F615070408030E0E09E07E0E0AE0731
:10106000E0E4BE0760F36B8F7C8F6FE7E62EF12C18
:10107000012D112DE822F9220A231B2360E4E61634
:10108000F1040105110561F487FD0AC02115310540
:101090004105510529F0805C9F4FAF4FBF4F8078CD
:1010A0008D8F9E8FAF8FB8A383E0898FCE01499635
:1010B00002C088EB91E00E947B0AA096E2E10C94CA
:1010C0008B0CA8E1B0E0E7E6F8E00C94770C6983BC
:1010D0007A838B839C832D833E834F8358878E0135
:1010E000075F1F4FCE010196B8010E94490B81E1B5
:1010F000E82EF12CEC0EFD1ECE010596B7010E94E4
:10110000490B9985923008F483C08989823008F4AC
:101110007BC02A853A8923272A87943011F09230A0
:1011200021F4981709F06CC071C0843039F41D8621
:101130001E861F86188A1C861B866AC0823019F498
:1011400084E0898765C08B859C852B893C89821BBF
:10115000930B9C878B872D853E854F855889ED881D
:10116000FE880F89188D2E153F054007510738F46A
:10117000220F331F441F551F01979C878B876FE1F8
:1011800070E0A12CB12CC12CA0E4DA2E80E090E01C
:10119000DC012E153F054007510740F08A299B29A5
:1011A000AC29BD292E193F09400B510BD694C79489
:1011B000B794A794220F331F441F551F61507040EE
:1011C00041F76FE7E62EF12C012D112DE822F922CF
:1011D0000A231B2360E4E616F1040105110561F4FE
:1011E00087FD0AC0211531054105510529F0805CB4
:1011F0009F4FAF4FBF4F80788D879E87AF87B88B4B
:101200008E01075F1F4F04C0870102C008EB11E089
:10121000C8010E947B0A6896EAE00C94930CA8E14E
:10122000B0E0E5E1F9E00C947B0C69837A838B8371
:101230009C832D833E834F8358878E01075F1F4F0A
:10124000CE010196B8010E94490B81E1E82EF12CF4
:10125000EC0EFD1ECE010596B7010E94490B898553
:10126000823040F08989823028F0C801B7010E949D
:10127000B20B01C08FEF6896E6E00C94970CA8E1E2
:10128000B0E0E5E4F9E00C947B0C69837A838B830E
:101290009C832D833E834F8358878E01075F1F4FAA
:1012A000CE010196B8010E94490B81E1E82EF12C94
:1012B000EC0EFD1ECE010596B7010E94490B8985F3
:1012C000823040F08989823028F0C801B7010E943D
:1012D000B20B01C081E06896E6E00C94970CA8E0A0
:1012E000B0E0E5E7F9E00C947B0C7B018C0183E036
:1012F0008983D801C7018827B7FD83959927AA2735
:10130000BB27282F8A83E114F1040105110519F484
:1013100082E0898337C08EE190E09C838B83222317
:1013200089F080E0E81680E0F80680E0080780E8B1
:10133000180769F110950095F094E094E11CF11CF8
:10134000011D111DED82FE820F831887C801B701B0
:101350000E94210A9C01215030401216130694F479
:10136000022E04C0EE0CFF1C001F111F0A94D2F7BE
:10137000ED82FE820F8318878EE190E0821B930B33
:101380009C838B83CE0101960E947B0A04C060E09F
:1013900070E080E09FEC2896E6E00C94970CACE0BF
:1013A000B0E0E5EDF9E00C947F0C69837A838B83E0
:1013B0009C83CE010196BE016B5F7F4F0E94490B5B
:1013C0008D81823081F1823070F1843021F48E8100
:1013D000882369F10AC02F81388537FD24C06E81CA
:1013E0002F3131053CF0662311F120E030E040E080
:1013F00050E821C08EE190E0821B930B29853A854D
:101400004B855C8504C056954795379527958A95F9
:10141000D2F7662381F050954095309521953F4F46
:101420004F4F5F4F08C020E030E0A90104C02FEF0C
:101430003FEF4FEF5FE7B901CA012C96E2E00C9451
:101440009B0CAF92BF92CF92DF92EF92FF920F93DD
:101450001F937B018C0180E0E81680E0F80681E0B4
:10146000080780E0180758F4EFEFEE16F1040105C5
:10147000110509F090F480E090E0DC0117C0F0E085
:10148000EF16F0E0FF06F0E00F07F1E01F0750F461
:1014900080E190E0A0E0B0E009C088E090E0A0E04A
:1014A000B0E004C088E190E0A0E0B0E020E230E0ED
:1014B00040E050E0281B390B4A0B5B0B57016801D9
:1014C00004C0D694C794B794A7948A95D2F7D6014E
:1014D000C50180549E4FFC018081281B31094109C0
:1014E0005109C9011F910F91FF90EF90DF90CF90AC
:1014F000BF90AF900895EF92FF920F931F93CF93F9
:10150000DF93FC012481358146815781618180818F
:10151000823020F44061EFEFF0E0A3C0843009F4A2
:101520009BC0823009F492C0211531054105510557
:1015300009F48FC00280F381E02D8FEFE238F807C5
:101540000CF05AC0C2E8DFEFCE1BDF0BCA31D10569
:101550006CF579018A010C2E04C016950795F79455
:10156000E7940A94D2F781E090E0A0E0B0E00C2E7E
:1015700004C0880F991FAA1FBB1F0A94D2F70197B6
:10158000A109B10982239323A423B52321E030E0EC
:1015900040E050E00097A105B10519F420E030E0EB
:1015A000A9012E293F29402B512B03C020E030E018
:1015B000A901DA01C9018F779070A070B0708034F2
:1015C0009105A105B10539F427FF09C0205C3F4F03
:1015D0004F4F5F4F04C0215C3F4F4F4F5F4FE1E0E3
:1015E000F0E0203080E0380780E0480780E45807CA
:1015F00028F5E0E0F0E022C0E038F1056CF5E158B4
:10160000FF4FDA01C9018F779070A070B0708034FD
:101610009105A105B10539F427FF09C0205C3F4FB2
:101620004F4F5F4F04C0215C3F4F4F4F5F4F57FFFD
:1016300005C05695479537952795319687E056957D
:101640004795379527958A95D1F70BC0E0E0F0E0F4
:1016500005C0E0E0F0E005C0EFEFF0E020E030E0B2
:10166000A9018E2F879588278795942F9F77679557
:1016700066276795E695E22EA92FA82BFE2FF62B5D
:10168000622F732F8A2F9F2FCDB7DEB7E6E00C9421
:10169000970CDC01FB012C9111963C91119712964D
:1016A0008C911297482F4F7750E0982F991F9927C8
:1016B000991F13966C911397862F880F892B90E0B2
:1016C000661F6627661F6183009739F5211531056E
:1016D0004105510511F482E029C082E89FEF938310
:1016E000828367E0220F331F441F551F6A95D1F78D
:1016F00083E0808309C0220F331F441F551F82815E
:101700009381019793838283203080E0380780E0C3
:10171000480780E4580778F320C08F3F910579F49B
:10172000211531054105510519F484E080830895A0
:1017300044FF03C081E0808310C010820EC08F5729
:1017400090409383828383E0808387E0220F331F5E
:10175000441F551F8A95D1F75064248335834683EF
:1017600057830895FC01DB019081923008F449C051
:101770008C91823008F445C0943051F461818430FA
:10178000B1F511962C91119730E0261B310941C01B
:10179000843021F0923041F48230B1F111968C9175
:1017A00011978823A1F12DC06181823001F111963A
:1017B0008C9111976817D9F42281338112968D91FB
:1017C0009C9113978217930794F028173907BCF060
:1017D000248135814681578114968D919D910D907C
:1017E000BC91A02D82179307A407B50718F46623B0
:1017F00041F00DC0281739074A075B0728F4662314
:1018000031F021E030E005C020E030E002C02FEFF1
:101810003FEFC901089597FB092E07260AD077FDEF
:1018200004D027D006D000201AF4709561957F4F20
:101830000895F6F7909581959F4F089597FB092E8F
:1018400005260ED057FD04D028D00AD0001C38F44D
:1018500050954095309521953F4F4F4F5F4F0895DC
:10186000F6F790958095709561957F4F8F4F9F4FBC
:101870000895AA1BBB1B51E107C0AA1FBB1FA617D7
:10188000B70710F0A61BB70B881F991F5A95A9F729
:1018900080959095BC01CD010895A1E21A2EAA1B56
:1018A000BB1BFD010DC0AA1FBB1FEE1FFF1FA21710
:1018B000B307E407F50720F0A21BB30BE40BF50B0D
:1018C000661F771F881F991F1A9469F76095709596
:1018D000809590959B01AC01BD01CF0108952F9299
:1018E0003F924F925F926F927F928F929F92AF92B0
:1018F000BF92CF92DF92EF92FF920F931F93CF93FD
:10190000DF93CDB7DEB7CA1BDB0B0FB6F894DEBF93
:101910000FBECDBF09942A88398848885F846E84B9
:101920007D848C849B84AA84B984C884DF80EE8003
:10193000FD800C811B81AA81B981CE0FD11D0FB60C
:10194000F894DEBF0FBECDBFED0108950F931F9336
:10195000DF93CF93CDB7DEB72E970FB6F894DEBFE7
:101960000FBECDBF0D891E898F89988D26E02C83EF
:101970001A83098397FF02C080E090E801979E8355
:101980008D839E01255E3F4FCE010196698D7A8D34
:10199000A9010E94E40C4D815E8157FD0AC02F8190
:1019A0003885421753070CF49A01020F131FF801F0
:1019B00010822E960FB6F894DEBF0FBECDBFCF912A
:1019C000DF911F910F9108952F923F924F925F9256
:1019D0006F927F928F929F92AF92BF92CF92DF923F
:1019E000EF92FF920F931F93DF93CF93CDB7DEB7A4
:1019F0002C970FB6F894DEBF0FBECDBF6C011B0154
:101A00008A01FC0117821682838181FFD1C12E01D8
:101A10000894411C511CF6019381F10193FD8591BD
:101A200093FF81911F01882309F4BEC1853239F4E7
:101A300093FD859193FF81911F01853229F490E0F8
:101A4000B6010E941D0FE7CFEE24FF2420E02032D4
:101A5000B0F48B3269F08C3228F4803251F083324A
:101A600071F40BC08D3239F0803349F421602CC001
:101A70002260246029C0286027C0206125C027FD7E
:101A80002CC0382F30533A3098F426FF08C08E2DE2
:101A9000880FE82EEE0CEE0CE80EE30E15C08F2D2D
:101AA000880FF82EFF0CFF0CF80EF30E20620CC00E
:101AB0008E3221F426FD78C1206406C08C3611F4E4
:101AC000206802C0883649F4F10193FD859193FFA7
:101AD00081911F01882309F0BACF982F9554933034
:101AE00018F09052933028F40C5F1F4FFFE3F983F6
:101AF0000DC0833631F0833771F0833509F060C053
:101B000022C0F801808189830E5F1F4F420171E07E
:101B1000A72EB12C16C062E0662E712C600E711ECD
:101B2000F8018080918026FF03C06E2D70E002C016
:101B30006FEF7FEFC4012C870E94120F5C018301BD
:101B40002C852F7717C052E0652E712C600E711E08
:101B5000F8018080918026FF03C06E2D70E002C0E6
:101B60006FEF7FEFC4012C870E94070F5C012C856B
:101B70002068830123FD20C008C080E290E0B60108
:101B80002C870E941D0FFA942C858F2D90E0A816AB
:101B9000B90698F311C0F40127FD859127FF8191C3
:101BA0004F0190E0B6012C870E941D0F2C85F1108B
:101BB000FA940894A108B108A114B10461F7F1C026
:101BC000843611F0893649F527FF08C0F801608195
:101BD0007181828193810C5F1F4F09C0F801608180
:101BE0007181882777FD8095982F0E5F1F4F4FE6F4
:101BF000B42EB22297FF09C090958095709561959B
:101C00007F4F8F4F9F4FF0E8BF2AA2012AE030E0BC
:101C10000E94490F782E741845C0853731F43FEE85
:101C2000B32EB2222AE030E025C099EFB92EB222BD
:101C30008F36C1F0803720F4883509F0B5C00DC06B
:101C4000803721F0883709F0AFC002C020E1B22A06
:101C5000B4FE0BC084E0B82A08C0B4FE09C0E6E0B8
:101C6000BE2A06C028E030E005C020E130E002C016
:101C700020E132E0B7FE08C0F80160817181828105
:101C800093810C5F1F4F07C0F8016081718180E074
:101C900090E00E5F1F4FA2010E94490F782E74182A
:101CA000FFE7BF22B6FE0BC02EEFB2227E1438F43F
:101CB000B4FE07C0B2FC05C08FEEB82202C0A72C4C
:101CC00001C0AE2C8B2D90E0B4FE0DC0FE01E70DDF
:101CD000F11D2081203319F4E9EEBE2209C0A3943E
:101CE000B2FE06C004C086789070009709F0A394F5
:101CF0008B2C9924B3FC14C0B0FE0FC0AF1428F491
:101D0000E72CEF0CEA18AF2C08C0E72C06C080E2E5
:101D100090E0B6010E941D0FA394AF14C0F304C05D
:101D2000AF1410F4FA1801C0FF2484FE0FC080E342
:101D300090E0B6010E941D0F82FE1FC081FE03C00D
:101D400088E590E010C088E790E00DC0C401867877
:101D50009070009791F081FC02C080E201C08BE29C
:101D6000B7FC8DE290E0B6010E941D0F06C080E333
:101D700090E0B6010E941D0FEA947E14C0F37A949D
:101D8000F201E70DF11D808190E0B6010E941D0F68
:101D90007720A9F706C080E290E0B6010E941D0FEF
:101DA000FA94FF20C1F737CEF6012681378102C0B1
:101DB0002FEF3FEFC9012C960FB6F894DEBF0FBE90
:101DC000CDBFCF91DF911F910F91FF90EF90DF90EA
:101DD000CF90BF90AF909F908F907F906F905F90CB
:101DE0004F903F902F900895A6E1B0E044E050E07E
:101DF0000C94A90F242F0E94B80F252F0E94B80F12
:101E00000C94020F0E94B70F272F0C94B80FFC01FF
:101E10000590615070400110D8F7809590958E0F15
:101E20009F1F0895FC016150704001900110D8F788
:101E3000809590958E0F9F1F08950F931F93CF93BA
:101E4000DF938C01EB018B8181FF1BC082FF0DC0F2
:101E50002E813F818C819D812817390764F4E881A8
:101E6000F9810193F983E88306C0E885F985802F1D
:101E70000995009731F48E819F8101969F838E830F
:101E800002C00FEF1FEFC801DF91CF911F910F919B
:101E90000895FA01AA27283051F1203181F1E89400
:101EA0006F936E7F6E5F7F4F8F4F9F4FAF4FB1E04D
:101EB0003ED0B4E03CD0670F781F891F9A1FA11D48
:101EC000680F791F8A1F911DA11D6A0F711D811D49
:101ED000911DA11D20D009F468943F912AE0269F0E
:101EE00011243019305D3193DEF6CF010895462F6D
:101EF0004770405D4193B3E00FD0C9F7F6CF462F4E
:101F00004F70405D4A3318F0495D31FD40524193B6
:101F100002D0A9F7EACFB4E0A69597958795779573
:101F20006795BA95C9F700976105710508959B01FA
:101F3000AC010A2E06945795479537952795BA9583
:101F4000C9F7620F731F841F951FA01D0895DC0140
:101F5000CB01FC01E199FECF06C0FFBBEEBBE09ACE
:101F600031960DB20D9241505040B8F70895262F8A
:101F7000E199FECF9FBB8EBB2DBB0FB6F894E29AC2
:0C1F8000E19A0FBE01960895F894FFCF7F
:101F8C0018190204081303000004001500040000D3
:101F9C0000040011000400000305090B0B181800C5
:101FAC001F0E0E040404040401010505151515008B
:101FBC000E11111F1F1F1F00000000000000000069
:101FCC00253031642E2530316400416972666C6FA6
:101FDC00773A2000206D2F73005461726765743A54
:101FEC0020342E35206D2F730043616C6962726151
:101FFC0074696F6E204D6F64650043616C2E2050C8
:10200C006F696E7420310043616C2E20506F696EC5
:10201C0074203200507265737320253120546F2068
:10202C005361766500507265737320253220546FAE
:10203C0020536176650032000000000000000000B3
:10204C000001020203030303040404040404040453
:10205C000505050505050505050505050505050524
:10206C000606060606060606060606060606060604
:10207C0006060606060606060606060606060606F4
:10208C0007070707070707070707070707070707D4
:10209C0007070707070707070707070707070707C4
:1020AC0007070707070707070707070707070707B4
:1020BC0007070707070707070707070707070707A4
:1020CC000808080808080808080808080808080884
:1020DC000808080808080808080808080808080874
:1020EC000808080808080808080808080808080864
:1020FC000808080808080808080808080808080854
:10210C000808080808080808080808080808080843
:10211C000808080808080808080808080808080833
:10212C000808080808080808080808080808080823
:10213C000808080808080808080808080808080813
:00000001FF
